{
  "_format": "hh-sol-artifact-1",
  "contractName": "TodoList",
  "sourceName": "contracts/Todos.sol",
  "abi": [
    {
      "inputs": [
        {
          "internalType": "string",
          "name": "_title",
          "type": "string"
        },
        {
          "internalType": "string",
          "name": "_description",
          "type": "string"
        },
        {
          "internalType": "bool",
          "name": "_isCompleted",
          "type": "bool"
        }
      ],
      "name": "addTodo",
      "outputs": [],
      "stateMutability": "nonpayable",
      "type": "function"
    },
    {
      "inputs": [],
      "name": "getTodos",
      "outputs": [
        {
          "components": [
            {
              "internalType": "uint256",
              "name": "id",
              "type": "uint256"
            },
            {
              "internalType": "string",
              "name": "title",
              "type": "string"
            },
            {
              "internalType": "string",
              "name": "description",
              "type": "string"
            },
            {
              "internalType": "bool",
              "name": "isCompleted",
              "type": "bool"
            }
          ],
          "internalType": "struct TodoList.Todo[]",
          "name": "",
          "type": "tuple[]"
        }
      ],
      "stateMutability": "view",
      "type": "function"
    }
  ],
  "bytecode": "0x608060405234801561001057600080fd5b50610881806100206000396000f3fe608060405234801561001057600080fd5b50600436106100365760003560e01c80638409b0d01461003b578063c33926cb14610057575b600080fd5b61005560048036038101906100509190610474565b610075565b005b61005f610170565b60405161006c919061063d565b60405180910390f35b6000604051806080016040528042815260200185815260200184815260200183151581525090506000803373ffffffffffffffffffffffffffffffffffffffff1673ffffffffffffffffffffffffffffffffffffffff16815260200190815260200160002081908060018154018082558091505060019003906000526020600020906004020160009091909190915060008201518160000155602082015181600101908051906020019061012a929190610354565b506040820151816002019080519060200190610147929190610354565b5060608201518160030160006101000a81548160ff021916908315150217905550505050505050565b60606000803373ffffffffffffffffffffffffffffffffffffffff1673ffffffffffffffffffffffffffffffffffffffff168152602001908152602001600020805480602002602001604051908101604052809291908181526020016000905b8282101561034b57838290600052602060002090600402016040518060800160405290816000820154815260200160018201805461020d90610762565b80601f016020809104026020016040519081016040528092919081815260200182805461023990610762565b80156102865780601f1061025b57610100808354040283529160200191610286565b820191906000526020600020905b81548152906001019060200180831161026957829003601f168201915b5050505050815260200160028201805461029f90610762565b80601f01602080910402602001604051908101604052809291908181526020018280546102cb90610762565b80156103185780601f106102ed57610100808354040283529160200191610318565b820191906000526020600020905b8154815290600101906020018083116102fb57829003601f168201915b505050505081526020016003820160009054906101000a900460ff161515151581525050815260200190600101906101d0565b50505050905090565b82805461036090610762565b90600052602060002090601f01602090048101928261038257600085556103c9565b82601f1061039b57805160ff19168380011785556103c9565b828001600101855582156103c9579182015b828111156103c85782518255916020019190600101906103ad565b5b5090506103d691906103da565b5090565b5b808211156103f35760008160009055506001016103db565b5090565b600061040a61040584610684565b61065f565b90508281526020810184848401111561042257600080fd5b61042d848285610720565b509392505050565b60008135905061044481610834565b92915050565b600082601f83011261045b57600080fd5b813561046b8482602086016103f7565b91505092915050565b60008060006060848603121561048957600080fd5b600084013567ffffffffffffffff8111156104a357600080fd5b6104af8682870161044a565b935050602084013567ffffffffffffffff8111156104cc57600080fd5b6104d88682870161044a565b92505060406104e986828701610435565b9150509250925092565b60006104ff83836105c4565b905092915050565b6000610512826106c5565b61051c81856106e8565b93508360208202850161052e856106b5565b8060005b8581101561056a578484038952815161054b85826104f3565b9450610556836106db565b925060208a01995050600181019050610532565b50829750879550505050505092915050565b6105858161070a565b82525050565b6000610596826106d0565b6105a081856106f9565b93506105b081856020860161072f565b6105b981610823565b840191505092915050565b60006080830160008301516105dc600086018261062e565b50602083015184820360208601526105f4828261058b565b9150506040830151848203604086015261060e828261058b565b9150506060830151610623606086018261057c565b508091505092915050565b61063781610716565b82525050565b600060208201905081810360008301526106578184610507565b905092915050565b600061066961067a565b90506106758282610794565b919050565b6000604051905090565b600067ffffffffffffffff82111561069f5761069e6107f4565b5b6106a882610823565b9050602081019050919050565b6000819050602082019050919050565b600081519050919050565b600081519050919050565b6000602082019050919050565b600082825260208201905092915050565b600082825260208201905092915050565b60008115159050919050565b6000819050919050565b82818337600083830152505050565b60005b8381101561074d578082015181840152602081019050610732565b8381111561075c576000848401525b50505050565b6000600282049050600182168061077a57607f821691505b6020821081141561078e5761078d6107c5565b5b50919050565b61079d82610823565b810181811067ffffffffffffffff821117156107bc576107bb6107f4565b5b80604052505050565b7f4e487b7100000000000000000000000000000000000000000000000000000000600052602260045260246000fd5b7f4e487b7100000000000000000000000000000000000000000000000000000000600052604160045260246000fd5b6000601f19601f8301169050919050565b61083d8161070a565b811461084857600080fd5b5056fea2646970667358221220544aeffe2a1e591a9cd570eab3628758b73d4dc7ffece52347c63767d518ca2764736f6c63430008040033",
  "linkReferences": {},
  "deployedLinkReferences": {}
}